{
  "_format": "hh-sol-artifact-1",
  "contractName": "Lottery",
  "sourceName": "contracts/Lottery.sol",
  "abi": [
    {
      "inputs": [
        {
          "internalType": "string",
          "name": "tokenName",
          "type": "string"
        },
        {
          "internalType": "string",
          "name": "tokenSymbol",
          "type": "string"
        },
        {
          "internalType": "uint256",
          "name": "_betPrice",
          "type": "uint256"
        },
        {
          "internalType": "uint256",
          "name": "_betFee",
          "type": "uint256"
        }
      ],
      "stateMutability": "nonpayable",
      "type": "constructor"
    },
    {
      "anonymous": false,
      "inputs": [
        {
          "indexed": false,
          "internalType": "address",
          "name": "player",
          "type": "address"
        },
        {
          "indexed": false,
          "internalType": "bool",
          "name": "betted",
          "type": "bool"
        }
      ],
      "name": "Betted",
      "type": "event"
    },
    {
      "anonymous": false,
      "inputs": [
        {
          "indexed": false,
          "internalType": "address",
          "name": "closer",
          "type": "address"
        },
        {
          "indexed": false,
          "internalType": "uint256",
          "name": "closedAt",
          "type": "uint256"
        }
      ],
      "name": "CloseLottery",
      "type": "event"
    },
    {
      "anonymous": false,
      "inputs": [
        {
          "indexed": false,
          "internalType": "address",
          "name": "owner",
          "type": "address"
        },
        {
          "indexed": false,
          "internalType": "uint256",
          "name": "amount",
          "type": "uint256"
        }
      ],
      "name": "FeeWithdraw",
      "type": "event"
    },
    {
      "anonymous": false,
      "inputs": [
        {
          "indexed": false,
          "internalType": "address",
          "name": "owner",
          "type": "address"
        },
        {
          "indexed": false,
          "internalType": "uint256",
          "name": "openAt",
          "type": "uint256"
        }
      ],
      "name": "OpenBets",
      "type": "event"
    },
    {
      "anonymous": false,
      "inputs": [
        {
          "indexed": true,
          "internalType": "address",
          "name": "previousOwner",
          "type": "address"
        },
        {
          "indexed": true,
          "internalType": "address",
          "name": "newOwner",
          "type": "address"
        }
      ],
      "name": "OwnershipTransferred",
      "type": "event"
    },
    {
      "anonymous": false,
      "inputs": [
        {
          "indexed": false,
          "internalType": "address",
          "name": "winner",
          "type": "address"
        },
        {
          "indexed": false,
          "internalType": "uint256",
          "name": "amount",
          "type": "uint256"
        }
      ],
      "name": "PrizeWithdraw",
      "type": "event"
    },
    {
      "anonymous": false,
      "inputs": [
        {
          "indexed": false,
          "internalType": "address",
          "name": "from",
          "type": "address"
        },
        {
          "indexed": false,
          "internalType": "address",
          "name": "to",
          "type": "address"
        },
        {
          "indexed": false,
          "internalType": "uint256",
          "name": "amount",
          "type": "uint256"
        }
      ],
      "name": "TokensBurned",
      "type": "event"
    },
    {
      "anonymous": false,
      "inputs": [
        {
          "indexed": false,
          "internalType": "address",
          "name": "from",
          "type": "address"
        },
        {
          "indexed": false,
          "internalType": "address",
          "name": "to",
          "type": "address"
        },
        {
          "indexed": false,
          "internalType": "uint256",
          "name": "amount",
          "type": "uint256"
        }
      ],
      "name": "TokensMinted",
      "type": "event"
    },
    {
      "inputs": [],
      "name": "bet",
      "outputs": [],
      "stateMutability": "nonpayable",
      "type": "function"
    },
    {
      "inputs": [],
      "name": "betFee",
      "outputs": [
        {
          "internalType": "uint256",
          "name": "",
          "type": "uint256"
        }
      ],
      "stateMutability": "view",
      "type": "function"
    },
    {
      "inputs": [],
      "name": "betPrice",
      "outputs": [
        {
          "internalType": "uint256",
          "name": "",
          "type": "uint256"
        }
      ],
      "stateMutability": "view",
      "type": "function"
    },
    {
      "inputs": [],
      "name": "betsOpen",
      "outputs": [
        {
          "internalType": "bool",
          "name": "",
          "type": "bool"
        }
      ],
      "stateMutability": "view",
      "type": "function"
    },
    {
      "inputs": [],
      "name": "closeLottery",
      "outputs": [],
      "stateMutability": "nonpayable",
      "type": "function"
    },
    {
      "inputs": [],
      "name": "closingTime",
      "outputs": [
        {
          "internalType": "uint256",
          "name": "",
          "type": "uint256"
        }
      ],
      "stateMutability": "view",
      "type": "function"
    },
    {
      "inputs": [],
      "name": "getRandomNumber",
      "outputs": [
        {
          "internalType": "uint256",
          "name": "randomNumber",
          "type": "uint256"
        }
      ],
      "stateMutability": "view",
      "type": "function"
    },
    {
      "inputs": [],
      "name": "latestLotteryWinner",
      "outputs": [
        {
          "internalType": "address",
          "name": "",
          "type": "address"
        }
      ],
      "stateMutability": "view",
      "type": "function"
    },
    {
      "inputs": [],
      "name": "lotteryCashPool",
      "outputs": [
        {
          "internalType": "uint256",
          "name": "",
          "type": "uint256"
        }
      ],
      "stateMutability": "view",
      "type": "function"
    },
    {
      "inputs": [],
      "name": "lotteryFeePool",
      "outputs": [
        {
          "internalType": "uint256",
          "name": "",
          "type": "uint256"
        }
      ],
      "stateMutability": "view",
      "type": "function"
    },
    {
      "inputs": [
        {
          "internalType": "address",
          "name": "",
          "type": "address"
        }
      ],
      "name": "lotteryMembers",
      "outputs": [
        {
          "internalType": "bool",
          "name": "",
          "type": "bool"
        }
      ],
      "stateMutability": "view",
      "type": "function"
    },
    {
      "inputs": [
        {
          "internalType": "uint256",
          "name": "",
          "type": "uint256"
        }
      ],
      "name": "lotteryPlayers",
      "outputs": [
        {
          "internalType": "address",
          "name": "",
          "type": "address"
        }
      ],
      "stateMutability": "view",
      "type": "function"
    },
    {
      "inputs": [
        {
          "internalType": "uint256",
          "name": "_closingTime",
          "type": "uint256"
        }
      ],
      "name": "openBets",
      "outputs": [],
      "stateMutability": "nonpayable",
      "type": "function"
    },
    {
      "inputs": [],
      "name": "owner",
      "outputs": [
        {
          "internalType": "address",
          "name": "",
          "type": "address"
        }
      ],
      "stateMutability": "view",
      "type": "function"
    },
    {
      "inputs": [
        {
          "internalType": "uint256",
          "name": "amount",
          "type": "uint256"
        }
      ],
      "name": "ownerWithdrawFees",
      "outputs": [],
      "stateMutability": "nonpayable",
      "type": "function"
    },
    {
      "inputs": [],
      "name": "paymentToken",
      "outputs": [
        {
          "internalType": "contract LotteryToken",
          "name": "",
          "type": "address"
        }
      ],
      "stateMutability": "view",
      "type": "function"
    },
    {
      "inputs": [
        {
          "internalType": "uint256",
          "name": "amount",
          "type": "uint256"
        }
      ],
      "name": "prizeWithdraw",
      "outputs": [],
      "stateMutability": "nonpayable",
      "type": "function"
    },
    {
      "inputs": [],
      "name": "purchaseTokens",
      "outputs": [],
      "stateMutability": "payable",
      "type": "function"
    },
    {
      "inputs": [],
      "name": "renounceOwnership",
      "outputs": [],
      "stateMutability": "nonpayable",
      "type": "function"
    },
    {
      "inputs": [
        {
          "internalType": "uint256",
          "name": "amount",
          "type": "uint256"
        }
      ],
      "name": "returnTokens",
      "outputs": [],
      "stateMutability": "nonpayable",
      "type": "function"
    },
    {
      "inputs": [
        {
          "internalType": "address",
          "name": "newOwner",
          "type": "address"
        }
      ],
      "name": "transferOwnership",
      "outputs": [],
      "stateMutability": "nonpayable",
      "type": "function"
    },
    {
      "inputs": [
        {
          "internalType": "address",
          "name": "",
          "type": "address"
        }
      ],
      "name": "winningPrize",
      "outputs": [
        {
          "internalType": "uint256",
          "name": "",
          "type": "uint256"
        }
      ],
      "stateMutability": "view",
      "type": "function"
    },
    {
      "stateMutability": "payable",
      "type": "receive"
    }
  ],
  "bytecode": "0x60806040523480156200001157600080fd5b50604051620051f7380380620051f78339818101604052810190620000379190620003ea565b620000576200004b6200014260201b60201c565b6200014a60201b60201c565b838360405162000067906200020e565b62000074929190620004f7565b604051809103906000f08015801562000091573d6000803e3d6000fd5b50600160006101000a81548173ffffffffffffffffffffffffffffffffffffffff021916908373ffffffffffffffffffffffffffffffffffffffff16021790555081600481905550806005819055506001600a60003373ffffffffffffffffffffffffffffffffffffffff1673ffffffffffffffffffffffffffffffffffffffff16815260200190815260200160002060006101000a81548160ff0219169083151502179055505050505062000532565b600033905090565b60008060009054906101000a900473ffffffffffffffffffffffffffffffffffffffff169050816000806101000a81548173ffffffffffffffffffffffffffffffffffffffff021916908373ffffffffffffffffffffffffffffffffffffffff1602179055508173ffffffffffffffffffffffffffffffffffffffff168173ffffffffffffffffffffffffffffffffffffffff167f8be0079c531659141344cd1fd0a4f28419497f9722a3daafe3b4186f6b6457e060405160405180910390a35050565b612c7b806200257c83390190565b6000604051905090565b600080fd5b600080fd5b600080fd5b600080fd5b6000601f19601f8301169050919050565b7f4e487b7100000000000000000000000000000000000000000000000000000000600052604160045260246000fd5b62000285826200023a565b810181811067ffffffffffffffff82111715620002a757620002a66200024b565b5b80604052505050565b6000620002bc6200021c565b9050620002ca82826200027a565b919050565b600067ffffffffffffffff821115620002ed57620002ec6200024b565b5b620002f8826200023a565b9050602081019050919050565b60005b838110156200032557808201518184015260208101905062000308565b60008484015250505050565b6000620003486200034284620002cf565b620002b0565b90508281526020810184848401111562000367576200036662000235565b5b6200037484828562000305565b509392505050565b600082601f83011262000394576200039362000230565b5b8151620003a684826020860162000331565b91505092915050565b6000819050919050565b620003c481620003af565b8114620003d057600080fd5b50565b600081519050620003e481620003b9565b92915050565b6000806000806080858703121562000407576200040662000226565b5b600085015167ffffffffffffffff8111156200042857620004276200022b565b5b62000436878288016200037c565b945050602085015167ffffffffffffffff8111156200045a57620004596200022b565b5b62000468878288016200037c565b93505060406200047b87828801620003d3565b92505060606200048e87828801620003d3565b91505092959194509250565b600081519050919050565b600082825260208201905092915050565b6000620004c3826200049a565b620004cf8185620004a5565b9350620004e181856020860162000305565b620004ec816200023a565b840191505092915050565b60006040820190508181036000830152620005138185620004b6565b90508181036020830152620005298184620004b6565b90509392505050565b61203a80620005426000396000f3fe6080604052600436106101395760003560e01c80638da5cb5b116100ab578063c667f4ed1161006f578063c667f4ed1461047f578063cfd8a175146104aa578063d1b258ff146104d5578063dbdff2c114610500578063f2fde38b1461052b578063f9b93a1d146105545761020b565b80638da5cb5b14610386578063990a49f5146103b1578063a1822047146103da578063baf3bdd214610405578063c0105d3b146104425761020b565b80633d2483e6116100fd5780633d2483e6146102ae5780634b6753bc146102d75780636e8d4451146103025780636fd098161461032d578063715018a614610344578063841e6ce91461035b5761020b565b806311610c25146102105780633013ce29146102275780633290ce29146102525780633ae1786f1461025c5780633cc121e6146102855761020b565b3661020b57600160009054906101000a900473ffffffffffffffffffffffffffffffffffffffff1673ffffffffffffffffffffffffffffffffffffffff166340c10f1933346040518363ffffffff1660e01b815260040161019b929190611582565b600060405180830381600087803b1580156101b557600080fd5b505af11580156101c9573d6000803e3d6000fd5b505050507fbf67ec129007be07f346d9d2933215293a6612ce7ff17d6b479a5a5cae72890c60003334604051610201939291906115ab565b60405180910390a1005b600080fd5b34801561021c57600080fd5b50610225610591565b005b34801561023357600080fd5b5061023c6107e9565b6040516102499190611641565b60405180910390f35b61025a61080f565b005b34801561026857600080fd5b50610283600480360381019061027e919061168d565b610934565b005b34801561029157600080fd5b506102ac60048036038101906102a7919061168d565b610a73565b005b3480156102ba57600080fd5b506102d560048036038101906102d0919061168d565b610cbb565b005b3480156102e357600080fd5b506102ec610dfe565b6040516102f991906116ba565b60405180910390f35b34801561030e57600080fd5b50610317610e04565b60405161032491906116d5565b60405180910390f35b34801561033957600080fd5b50610342610e2a565b005b34801561035057600080fd5b5061035961113e565b005b34801561036757600080fd5b50610370611152565b60405161037d91906116ba565b60405180910390f35b34801561039257600080fd5b5061039b611158565b6040516103a891906116d5565b60405180910390f35b3480156103bd57600080fd5b506103d860048036038101906103d3919061168d565b611181565b005b3480156103e657600080fd5b506103ef611279565b6040516103fc91906116ba565b60405180910390f35b34801561041157600080fd5b5061042c6004803603810190610427919061171c565b61127f565b6040516104399190611764565b60405180910390f35b34801561044e57600080fd5b506104696004803603810190610464919061171c565b61129f565b60405161047691906116ba565b60405180910390f35b34801561048b57600080fd5b506104946112b7565b6040516104a191906116ba565b60405180910390f35b3480156104b657600080fd5b506104bf6112bd565b6040516104cc91906116ba565b60405180910390f35b3480156104e157600080fd5b506104ea6112c3565b6040516104f79190611764565b60405180910390f35b34801561050c57600080fd5b506105156112d6565b60405161052291906116ba565b60405180910390f35b34801561053757600080fd5b50610552600480360381019061054d919061171c565b6112de565b005b34801561056057600080fd5b5061057b6004803603810190610576919061168d565b611361565b60405161058891906116d5565b60405180910390f35b600860149054906101000a900460ff1680156105ae575060065442105b6105ed576040517f08c379a00000000000000000000000000000000000000000000000000000000081526004016105e4906117dc565b60405180910390fd5b6105f5611158565b73ffffffffffffffffffffffffffffffffffffffff163373ffffffffffffffffffffffffffffffffffffffff1603610662576040517f08c379a00000000000000000000000000000000000000000000000000000000081526004016106599061186e565b60405180910390fd5b6005546003600082825461067691906118bd565b925050819055506004546002600082825461069191906118bd565b925050819055506007339080600181540180825580915050600190039060005260206000200160009091909190916101000a81548173ffffffffffffffffffffffffffffffffffffffff021916908373ffffffffffffffffffffffffffffffffffffffff160217905550600160009054906101000a900473ffffffffffffffffffffffffffffffffffffffff1673ffffffffffffffffffffffffffffffffffffffff166323b872dd333060055460045461074b91906118bd565b6040518463ffffffff1660e01b8152600401610769939291906115ab565b6020604051808303816000875af1158015610788573d6000803e3d6000fd5b505050506040513d601f19601f820116820180604052508101906107ac919061191d565b507f16522addaec95e313f8dceb3a931498c74b9d4a36445790c5fea134e8204339e3360016040516107df92919061194a565b60405180910390a1565b600160009054906101000a900473ffffffffffffffffffffffffffffffffffffffff1681565b6001600a60003373ffffffffffffffffffffffffffffffffffffffff1673ffffffffffffffffffffffffffffffffffffffff16815260200190815260200160002060006101000a81548160ff021916908315150217905550600160009054906101000a900473ffffffffffffffffffffffffffffffffffffffff1673ffffffffffffffffffffffffffffffffffffffff166340c10f1933346040518363ffffffff1660e01b81526004016108c4929190611582565b600060405180830381600087803b1580156108de57600080fd5b505af11580156108f2573d6000803e3d6000fd5b505050507fbf67ec129007be07f346d9d2933215293a6612ce7ff17d6b479a5a5cae72890c6000333460405161092a939291906115ab565b60405180910390a1565b600160009054906101000a900473ffffffffffffffffffffffffffffffffffffffff1673ffffffffffffffffffffffffffffffffffffffff166379cc679033836040518363ffffffff1660e01b8152600401610991929190611582565b600060405180830381600087803b1580156109ab57600080fd5b505af11580156109bf573d6000803e3d6000fd5b5050505060003373ffffffffffffffffffffffffffffffffffffffff16826040516109e9906119a4565b60006040518083038185875af1925050503d8060008114610a26576040519150601f19603f3d011682016040523d82523d6000602084013e610a2b565b606091505b5050905080610a6f576040517f08c379a0000000000000000000000000000000000000000000000000000000008152600401610a6690611a2b565b60405180910390fd5b5050565b60011515600a60003373ffffffffffffffffffffffffffffffffffffffff1673ffffffffffffffffffffffffffffffffffffffff16815260200190815260200160002060009054906101000a900460ff16151514610b06576040517f08c379a0000000000000000000000000000000000000000000000000000000008152600401610afd90611abd565b60405180910390fd5b600960003373ffffffffffffffffffffffffffffffffffffffff1673ffffffffffffffffffffffffffffffffffffffff16815260200190815260200160002054811115610b88576040517f08c379a0000000000000000000000000000000000000000000000000000000008152600401610b7f90611b29565b60405180910390fd5b80600960003373ffffffffffffffffffffffffffffffffffffffff1673ffffffffffffffffffffffffffffffffffffffff1681526020019081526020016000206000828254610bd79190611b49565b92505081905550600160009054906101000a900473ffffffffffffffffffffffffffffffffffffffff1673ffffffffffffffffffffffffffffffffffffffff1663a9059cbb33836040518363ffffffff1660e01b8152600401610c3b929190611582565b6020604051808303816000875af1158015610c5a573d6000803e3d6000fd5b505050506040513d601f19601f82011682018060405250810190610c7e919061191d565b507ffd61073e84ddbae3f848e38cec7d0e778a3ac89ba7b3d945e1c8c199139016cb3382604051610cb0929190611582565b60405180910390a150565b610cc36113a0565b600354811115610d08576040517f08c379a0000000000000000000000000000000000000000000000000000000008152600401610cff90611bef565b60405180910390fd5b8060036000828254610d1a9190611b49565b92505081905550600160009054906101000a900473ffffffffffffffffffffffffffffffffffffffff1673ffffffffffffffffffffffffffffffffffffffff1663a9059cbb33836040518363ffffffff1660e01b8152600401610d7e929190611582565b6020604051808303816000875af1158015610d9d573d6000803e3d6000fd5b505050506040513d601f19601f82011682018060405250810190610dc1919061191d565b507fb28509e7b62b3347888ca8147b67de29ff057a5a187185b272fb9a4ccb0f7fa13382604051610df3929190611582565b60405180910390a150565b60065481565b600860009054906101000a900473ffffffffffffffffffffffffffffffffffffffff1681565b600860149054906101000a900460ff168015610e47575060065442115b610e86576040517f08c379a0000000000000000000000000000000000000000000000000000000008152600401610e7d90611c5b565b60405180910390fd5b60011515600a60003373ffffffffffffffffffffffffffffffffffffffff1673ffffffffffffffffffffffffffffffffffffffff16815260200190815260200160002060009054906101000a900460ff16151514610f19576040517f08c379a0000000000000000000000000000000000000000000000000000000008152600401610f1090611abd565b60405180910390fd5b600654421015610f5e576040517f08c379a0000000000000000000000000000000000000000000000000000000008152600401610f5590611ced565b60405180910390fd5b600860149054906101000a900460ff16610fad576040517f08c379a0000000000000000000000000000000000000000000000000000000008152600401610fa490611d59565b60405180910390fd5b600060078054905011156110e8576000600780549050610fcb6112d6565b610fd59190611da8565b905060078181548110610feb57610fea611dd9565b5b9060005260206000200160009054906101000a900473ffffffffffffffffffffffffffffffffffffffff16600860006101000a81548173ffffffffffffffffffffffffffffffffffffffff021916908373ffffffffffffffffffffffffffffffffffffffff16021790555060025460096000600860009054906101000a900473ffffffffffffffffffffffffffffffffffffffff1673ffffffffffffffffffffffffffffffffffffffff1673ffffffffffffffffffffffffffffffffffffffff16815260200190815260200160002060008282546110c991906118bd565b925050819055506000600281905550600760006110e691906114ea565b505b6000600860146101000a81548160ff0219169083151502179055507f5cfdb016366af7fd0070fc379d6949f7da034145b6a4643e5e7464ede19c5afa3342604051611134929190611582565b60405180910390a1565b6111466113a0565b611150600061141e565b565b60055481565b60008060009054906101000a900473ffffffffffffffffffffffffffffffffffffffff16905090565b6111896113a0565b600860149054906101000a900460ff16156111d9576040517f08c379a00000000000000000000000000000000000000000000000000000000081526004016111d090611e54565b60405180910390fd5b42811161121b576040517f08c379a000000000000000000000000000000000000000000000000000000000815260040161121290611ee6565b60405180910390fd5b806006819055506001600860146101000a81548160ff0219169083151502179055507f48f4fed08810fb6823827e816845364d00fec90019868702c9581198f325af4f334260405161126e929190611582565b60405180910390a150565b60025481565b600a6020528060005260406000206000915054906101000a900460ff1681565b60096020528060005260406000206000915090505481565b60035481565b60045481565b600860149054906101000a900460ff1681565b600044905090565b6112e66113a0565b600073ffffffffffffffffffffffffffffffffffffffff168173ffffffffffffffffffffffffffffffffffffffff1603611355576040517f08c379a000000000000000000000000000000000000000000000000000000000815260040161134c90611f78565b60405180910390fd5b61135e8161141e565b50565b6007818154811061137157600080fd5b906000526020600020016000915054906101000a900473ffffffffffffffffffffffffffffffffffffffff1681565b6113a86114e2565b73ffffffffffffffffffffffffffffffffffffffff166113c6611158565b73ffffffffffffffffffffffffffffffffffffffff161461141c576040517f08c379a000000000000000000000000000000000000000000000000000000000815260040161141390611fe4565b60405180910390fd5b565b60008060009054906101000a900473ffffffffffffffffffffffffffffffffffffffff169050816000806101000a81548173ffffffffffffffffffffffffffffffffffffffff021916908373ffffffffffffffffffffffffffffffffffffffff1602179055508173ffffffffffffffffffffffffffffffffffffffff168173ffffffffffffffffffffffffffffffffffffffff167f8be0079c531659141344cd1fd0a4f28419497f9722a3daafe3b4186f6b6457e060405160405180910390a35050565b600033905090565b5080546000825590600052602060002090810190611508919061150b565b50565b5b8082111561152457600081600090555060010161150c565b5090565b600073ffffffffffffffffffffffffffffffffffffffff82169050919050565b600061155382611528565b9050919050565b61156381611548565b82525050565b6000819050919050565b61157c81611569565b82525050565b6000604082019050611597600083018561155a565b6115a46020830184611573565b9392505050565b60006060820190506115c0600083018661155a565b6115cd602083018561155a565b6115da6040830184611573565b949350505050565b6000819050919050565b60006116076116026115fd84611528565b6115e2565b611528565b9050919050565b6000611619826115ec565b9050919050565b600061162b8261160e565b9050919050565b61163b81611620565b82525050565b60006020820190506116566000830184611632565b92915050565b600080fd5b61166a81611569565b811461167557600080fd5b50565b60008135905061168781611661565b92915050565b6000602082840312156116a3576116a261165c565b5b60006116b184828501611678565b91505092915050565b60006020820190506116cf6000830184611573565b92915050565b60006020820190506116ea600083018461155a565b92915050565b6116f981611548565b811461170457600080fd5b50565b600081359050611716816116f0565b92915050565b6000602082840312156117325761173161165c565b5b600061174084828501611707565b91505092915050565b60008115159050919050565b61175e81611749565b82525050565b60006020820190506117796000830184611755565b92915050565b600082825260208201905092915050565b7f4c6f74746572793a20426574732061726520636c6f7365640000000000000000600082015250565b60006117c660188361177f565b91506117d182611790565b602082019050919050565b600060208201905081810360008301526117f5816117b9565b9050919050565b7f4c6f74746572793a204f776e6572206f66206c6f7474657279206973206e6f7460008201527f20617574686f72697a656420746f206265740000000000000000000000000000602082015250565b600061185860328361177f565b9150611863826117fc565b604082019050919050565b600060208201905081810360008301526118878161184b565b9050919050565b7f4e487b7100000000000000000000000000000000000000000000000000000000600052601160045260246000fd5b60006118c882611569565b91506118d383611569565b92508282019050808211156118eb576118ea61188e565b5b92915050565b6118fa81611749565b811461190557600080fd5b50565b600081519050611917816118f1565b92915050565b6000602082840312156119335761193261165c565b5b600061194184828501611908565b91505092915050565b600060408201905061195f600083018561155a565b61196c6020830184611755565b9392505050565b600081905092915050565b50565b600061198e600083611973565b91506119998261197e565b600082019050919050565b60006119af82611981565b9150819050919050565b7f4c6f74746572793a204661696c73206275726e696e6720746f6b656e7320616e60008201527f642072657475726e696e67204574686572730000000000000000000000000000602082015250565b6000611a1560328361177f565b9150611a20826119b9565b604082019050919050565b60006020820190508181036000830152611a4481611a08565b9050919050565b7f4c6f74746572793a204163636f756e74206973206e6f7420506c61796572206f60008201527f72204f776e657200000000000000000000000000000000000000000000000000602082015250565b6000611aa760278361177f565b9150611ab282611a4b565b604082019050919050565b60006020820190508181036000830152611ad681611a9a565b9050919050565b7f4c6f74746572793a204e6f7420656e6f75676874207072697a65000000000000600082015250565b6000611b13601a8361177f565b9150611b1e82611add565b602082019050919050565b60006020820190508181036000830152611b4281611b06565b9050919050565b6000611b5482611569565b9150611b5f83611569565b9250828203905081811115611b7757611b7661188e565b5b92915050565b7f4c6f74746572793a204e6f7420656e6f756768206665657320636f6c6c65637460008201527f6564000000000000000000000000000000000000000000000000000000000000602082015250565b6000611bd960228361177f565b9150611be482611b7d565b604082019050919050565b60006020820190508181036000830152611c0881611bcc565b9050919050565b7f4c6f74746572793a2043616e206e6f7420626520636c6f736564207965742021600082015250565b6000611c4560208361177f565b9150611c5082611c0f565b602082019050919050565b60006020820190508181036000830152611c7481611c38565b9050919050565b7f4c6f74746572793a2043616e206e6f7420636c6f7365206c6f7474657279207960008201527f6574000000000000000000000000000000000000000000000000000000000000602082015250565b6000611cd760228361177f565b9150611ce282611c7b565b604082019050919050565b60006020820190508181036000830152611d0681611cca565b9050919050565b7f4c6f74746572793a20416c726561647920636c6f736564000000000000000000600082015250565b6000611d4360178361177f565b9150611d4e82611d0d565b602082019050919050565b60006020820190508181036000830152611d7281611d36565b9050919050565b7f4e487b7100000000000000000000000000000000000000000000000000000000600052601260045260246000fd5b6000611db382611569565b9150611dbe83611569565b925082611dce57611dcd611d79565b5b828206905092915050565b7f4e487b7100000000000000000000000000000000000000000000000000000000600052603260045260246000fd5b7f4c6f74746572793a204265747320617265206f70656e00000000000000000000600082015250565b6000611e3e60168361177f565b9150611e4982611e08565b602082019050919050565b60006020820190508181036000830152611e6d81611e31565b9050919050565b7f4c6f74746572793a20436c6f73696e672074696d65206d75737420626520696e60008201527f2074686520667574757265000000000000000000000000000000000000000000602082015250565b6000611ed0602b8361177f565b9150611edb82611e74565b604082019050919050565b60006020820190508181036000830152611eff81611ec3565b9050919050565b7f4f776e61626c653a206e6577206f776e657220697320746865207a65726f206160008201527f6464726573730000000000000000000000000000000000000000000000000000602082015250565b6000611f6260268361177f565b9150611f6d82611f06565b604082019050919050565b60006020820190508181036000830152611f9181611f55565b9050919050565b7f4f776e61626c653a2063616c6c6572206973206e6f7420746865206f776e6572600082015250565b6000611fce60208361177f565b9150611fd982611f98565b602082019050919050565b60006020820190508181036000830152611ffd81611fc1565b905091905056fea264697066735822122006504125bcf4027d183d3a931122f2eea0849c3bf79b53b2498e906a81ac48ca64736f6c6343000811003360806040523480156200001157600080fd5b5060405162002c7b38038062002c7b8339818101604052810190620000379190620003a6565b818181600390816200004a919062000676565b5080600490816200005c919062000676565b505050620000746000801b33620000ae60201b60201c565b620000a67f9f2df0fed2c77648de5860a4cc508cd0818c85b8b8a1ab4ceeef8d981c8956a633620000ae60201b60201c565b50506200075d565b620000c08282620001a060201b60201c565b6200019c5760016005600084815260200190815260200160002060000160008373ffffffffffffffffffffffffffffffffffffffff1673ffffffffffffffffffffffffffffffffffffffff16815260200190815260200160002060006101000a81548160ff021916908315150217905550620001416200020b60201b60201c565b73ffffffffffffffffffffffffffffffffffffffff168173ffffffffffffffffffffffffffffffffffffffff16837f2f8788117e7eff1d82e926ec794901d17c78024a50270940304540a733656f0d60405160405180910390a45b5050565b60006005600084815260200190815260200160002060000160008373ffffffffffffffffffffffffffffffffffffffff1673ffffffffffffffffffffffffffffffffffffffff16815260200190815260200160002060009054906101000a900460ff16905092915050565b600033905090565b6000604051905090565b600080fd5b600080fd5b600080fd5b600080fd5b6000601f19601f8301169050919050565b7f4e487b7100000000000000000000000000000000000000000000000000000000600052604160045260246000fd5b6200027c8262000231565b810181811067ffffffffffffffff821117156200029e576200029d62000242565b5b80604052505050565b6000620002b362000213565b9050620002c1828262000271565b919050565b600067ffffffffffffffff821115620002e457620002e362000242565b5b620002ef8262000231565b9050602081019050919050565b60005b838110156200031c578082015181840152602081019050620002ff565b60008484015250505050565b60006200033f6200033984620002c6565b620002a7565b9050828152602081018484840111156200035e576200035d6200022c565b5b6200036b848285620002fc565b509392505050565b600082601f8301126200038b576200038a62000227565b5b81516200039d84826020860162000328565b91505092915050565b60008060408385031215620003c057620003bf6200021d565b5b600083015167ffffffffffffffff811115620003e157620003e062000222565b5b620003ef8582860162000373565b925050602083015167ffffffffffffffff81111562000413576200041262000222565b5b620004218582860162000373565b9150509250929050565b600081519050919050565b7f4e487b7100000000000000000000000000000000000000000000000000000000600052602260045260246000fd5b600060028204905060018216806200047e57607f821691505b60208210810362000494576200049362000436565b5b50919050565b60008190508160005260206000209050919050565b60006020601f8301049050919050565b600082821b905092915050565b600060088302620004fe7fffffffffffffffffffffffffffffffffffffffffffffffffffffffffffffffff82620004bf565b6200050a8683620004bf565b95508019841693508086168417925050509392505050565b6000819050919050565b6000819050919050565b600062000557620005516200054b8462000522565b6200052c565b62000522565b9050919050565b6000819050919050565b620005738362000536565b6200058b62000582826200055e565b848454620004cc565b825550505050565b600090565b620005a262000593565b620005af81848462000568565b505050565b5b81811015620005d757620005cb60008262000598565b600181019050620005b5565b5050565b601f8211156200062657620005f0816200049a565b620005fb84620004af565b810160208510156200060b578190505b620006236200061a85620004af565b830182620005b4565b50505b505050565b600082821c905092915050565b60006200064b600019846008026200062b565b1980831691505092915050565b600062000666838362000638565b9150826002028217905092915050565b62000681826200042b565b67ffffffffffffffff8111156200069d576200069c62000242565b5b620006a9825462000465565b620006b6828285620005db565b600060209050601f831160018114620006ee5760008415620006d9578287015190505b620006e5858262000658565b86555062000755565b601f198416620006fe866200049a565b60005b82811015620007285784890151825560018201915060208501945060208101905062000701565b8683101562000748578489015162000744601f89168262000638565b8355505b6001600288020188555050505b505050505050565b61250e806200076d6000396000f3fe608060405234801561001057600080fd5b50600436106101425760003560e01c806342966c68116100b8578063a217fddf1161007c578063a217fddf1461039b578063a457c2d7146103b9578063a9059cbb146103e9578063d539139314610419578063d547741f14610437578063dd62ed3e1461045357610142565b806342966c68146102e557806370a082311461030157806379cc67901461033157806391d148541461034d57806395d89b411461037d57610142565b8063248a9ca31161010a578063248a9ca3146102135780632f2ff15d14610243578063313ce5671461025f57806336568abe1461027d578063395093511461029957806340c10f19146102c957610142565b806301ffc9a71461014757806306fdde0314610177578063095ea7b31461019557806318160ddd146101c557806323b872dd146101e3575b600080fd5b610161600480360381019061015c91906117a0565b610483565b60405161016e91906117e8565b60405180910390f35b61017f6104fd565b60405161018c9190611893565b60405180910390f35b6101af60048036038101906101aa9190611949565b61058f565b6040516101bc91906117e8565b60405180910390f35b6101cd6105b2565b6040516101da9190611998565b60405180910390f35b6101fd60048036038101906101f891906119b3565b6105bc565b60405161020a91906117e8565b60405180910390f35b61022d60048036038101906102289190611a3c565b6105eb565b60405161023a9190611a78565b60405180910390f35b61025d60048036038101906102589190611a93565b61060b565b005b61026761062c565b6040516102749190611aef565b60405180910390f35b61029760048036038101906102929190611a93565b610635565b005b6102b360048036038101906102ae9190611949565b6106b8565b6040516102c091906117e8565b60405180910390f35b6102e360048036038101906102de9190611949565b6106ef565b005b6102ff60048036038101906102fa9190611b0a565b610728565b005b61031b60048036038101906103169190611b37565b61073c565b6040516103289190611998565b60405180910390f35b61034b60048036038101906103469190611949565b610784565b005b61036760048036038101906103629190611a93565b6107a4565b60405161037491906117e8565b60405180910390f35b61038561080f565b6040516103929190611893565b60405180910390f35b6103a36108a1565b6040516103b09190611a78565b60405180910390f35b6103d360048036038101906103ce9190611949565b6108a8565b6040516103e091906117e8565b60405180910390f35b61040360048036038101906103fe9190611949565b61091f565b60405161041091906117e8565b60405180910390f35b610421610942565b60405161042e9190611a78565b60405180910390f35b610451600480360381019061044c9190611a93565b610966565b005b61046d60048036038101906104689190611b64565b610987565b60405161047a9190611998565b60405180910390f35b60007f7965db0b000000000000000000000000000000000000000000000000000000007bffffffffffffffffffffffffffffffffffffffffffffffffffffffff1916827bffffffffffffffffffffffffffffffffffffffffffffffffffffffff191614806104f657506104f582610a0e565b5b9050919050565b60606003805461050c90611bd3565b80601f016020809104026020016040519081016040528092919081815260200182805461053890611bd3565b80156105855780601f1061055a57610100808354040283529160200191610585565b820191906000526020600020905b81548152906001019060200180831161056857829003601f168201915b5050505050905090565b60008061059a610a78565b90506105a7818585610a80565b600191505092915050565b6000600254905090565b6000806105c7610a78565b90506105d4858285610c49565b6105df858585610cd5565b60019150509392505050565b600060056000838152602001908152602001600020600101549050919050565b610614826105eb565b61061d81610f54565b6106278383610f68565b505050565b60006012905090565b61063d610a78565b73ffffffffffffffffffffffffffffffffffffffff168173ffffffffffffffffffffffffffffffffffffffff16146106aa576040517f08c379a00000000000000000000000000000000000000000000000000000000081526004016106a190611c76565b60405180910390fd5b6106b48282611049565b5050565b6000806106c3610a78565b90506106e48185856106d58589610987565b6106df9190611cc5565b610a80565b600191505092915050565b7f9f2df0fed2c77648de5860a4cc508cd0818c85b8b8a1ab4ceeef8d981c8956a661071981610f54565b610723838361112b565b505050565b610739610733610a78565b8261128a565b50565b60008060008373ffffffffffffffffffffffffffffffffffffffff1673ffffffffffffffffffffffffffffffffffffffff168152602001908152602001600020549050919050565b61079682610790610a78565b83610c49565b6107a0828261128a565b5050565b60006005600084815260200190815260200160002060000160008373ffffffffffffffffffffffffffffffffffffffff1673ffffffffffffffffffffffffffffffffffffffff16815260200190815260200160002060009054906101000a900460ff16905092915050565b60606004805461081e90611bd3565b80601f016020809104026020016040519081016040528092919081815260200182805461084a90611bd3565b80156108975780601f1061086c57610100808354040283529160200191610897565b820191906000526020600020905b81548152906001019060200180831161087a57829003601f168201915b5050505050905090565b6000801b81565b6000806108b3610a78565b905060006108c18286610987565b905083811015610906576040517f08c379a00000000000000000000000000000000000000000000000000000000081526004016108fd90611d6b565b60405180910390fd5b6109138286868403610a80565b60019250505092915050565b60008061092a610a78565b9050610937818585610cd5565b600191505092915050565b7f9f2df0fed2c77648de5860a4cc508cd0818c85b8b8a1ab4ceeef8d981c8956a681565b61096f826105eb565b61097881610f54565b6109828383611049565b505050565b6000600160008473ffffffffffffffffffffffffffffffffffffffff1673ffffffffffffffffffffffffffffffffffffffff16815260200190815260200160002060008373ffffffffffffffffffffffffffffffffffffffff1673ffffffffffffffffffffffffffffffffffffffff16815260200190815260200160002054905092915050565b60007f01ffc9a7000000000000000000000000000000000000000000000000000000007bffffffffffffffffffffffffffffffffffffffffffffffffffffffff1916827bffffffffffffffffffffffffffffffffffffffffffffffffffffffff1916149050919050565b600033905090565b600073ffffffffffffffffffffffffffffffffffffffff168373ffffffffffffffffffffffffffffffffffffffff1603610aef576040517f08c379a0000000000000000000000000000000000000000000000000000000008152600401610ae690611dfd565b60405180910390fd5b600073ffffffffffffffffffffffffffffffffffffffff168273ffffffffffffffffffffffffffffffffffffffff1603610b5e576040517f08c379a0000000000000000000000000000000000000000000000000000000008152600401610b5590611e8f565b60405180910390fd5b80600160008573ffffffffffffffffffffffffffffffffffffffff1673ffffffffffffffffffffffffffffffffffffffff16815260200190815260200160002060008473ffffffffffffffffffffffffffffffffffffffff1673ffffffffffffffffffffffffffffffffffffffff168152602001908152602001600020819055508173ffffffffffffffffffffffffffffffffffffffff168373ffffffffffffffffffffffffffffffffffffffff167f8c5be1e5ebec7d5bd14f71427d1e84f3dd0314c0f7b2291e5b200ac8c7c3b92583604051610c3c9190611998565b60405180910390a3505050565b6000610c558484610987565b90507fffffffffffffffffffffffffffffffffffffffffffffffffffffffffffffffff8114610ccf5781811015610cc1576040517f08c379a0000000000000000000000000000000000000000000000000000000008152600401610cb890611efb565b60405180910390fd5b610cce8484848403610a80565b5b50505050565b600073ffffffffffffffffffffffffffffffffffffffff168373ffffffffffffffffffffffffffffffffffffffff1603610d44576040517f08c379a0000000000000000000000000000000000000000000000000000000008152600401610d3b90611f8d565b60405180910390fd5b600073ffffffffffffffffffffffffffffffffffffffff168273ffffffffffffffffffffffffffffffffffffffff1603610db3576040517f08c379a0000000000000000000000000000000000000000000000000000000008152600401610daa9061201f565b60405180910390fd5b610dbe838383611460565b60008060008573ffffffffffffffffffffffffffffffffffffffff1673ffffffffffffffffffffffffffffffffffffffff16815260200190815260200160002054905081811015610e44576040517f08c379a0000000000000000000000000000000000000000000000000000000008152600401610e3b906120b1565b60405180910390fd5b8181036000808673ffffffffffffffffffffffffffffffffffffffff1673ffffffffffffffffffffffffffffffffffffffff16815260200190815260200160002081905550816000808573ffffffffffffffffffffffffffffffffffffffff1673ffffffffffffffffffffffffffffffffffffffff1681526020019081526020016000206000828254610ed79190611cc5565b925050819055508273ffffffffffffffffffffffffffffffffffffffff168473ffffffffffffffffffffffffffffffffffffffff167fddf252ad1be2c89b69c2b068fc378daa952ba7f163c4a11628f55a4df523b3ef84604051610f3b9190611998565b60405180910390a3610f4e848484611465565b50505050565b610f6581610f60610a78565b61146a565b50565b610f7282826107a4565b6110455760016005600084815260200190815260200160002060000160008373ffffffffffffffffffffffffffffffffffffffff1673ffffffffffffffffffffffffffffffffffffffff16815260200190815260200160002060006101000a81548160ff021916908315150217905550610fea610a78565b73ffffffffffffffffffffffffffffffffffffffff168173ffffffffffffffffffffffffffffffffffffffff16837f2f8788117e7eff1d82e926ec794901d17c78024a50270940304540a733656f0d60405160405180910390a45b5050565b61105382826107a4565b156111275760006005600084815260200190815260200160002060000160008373ffffffffffffffffffffffffffffffffffffffff1673ffffffffffffffffffffffffffffffffffffffff16815260200190815260200160002060006101000a81548160ff0219169083151502179055506110cc610a78565b73ffffffffffffffffffffffffffffffffffffffff168173ffffffffffffffffffffffffffffffffffffffff16837ff6391f5c32d9c69d2a47ea670b442974b53935d1edc7fd64eb21e047a839171b60405160405180910390a45b5050565b600073ffffffffffffffffffffffffffffffffffffffff168273ffffffffffffffffffffffffffffffffffffffff160361119a576040517f08c379a00000000000000000000000000000000000000000000000000000000081526004016111919061211d565b60405180910390fd5b6111a660008383611460565b80600260008282546111b89190611cc5565b92505081905550806000808473ffffffffffffffffffffffffffffffffffffffff1673ffffffffffffffffffffffffffffffffffffffff168152602001908152602001600020600082825461120d9190611cc5565b925050819055508173ffffffffffffffffffffffffffffffffffffffff16600073ffffffffffffffffffffffffffffffffffffffff167fddf252ad1be2c89b69c2b068fc378daa952ba7f163c4a11628f55a4df523b3ef836040516112729190611998565b60405180910390a361128660008383611465565b5050565b600073ffffffffffffffffffffffffffffffffffffffff168273ffffffffffffffffffffffffffffffffffffffff16036112f9576040517f08c379a00000000000000000000000000000000000000000000000000000000081526004016112f0906121af565b60405180910390fd5b61130582600083611460565b60008060008473ffffffffffffffffffffffffffffffffffffffff1673ffffffffffffffffffffffffffffffffffffffff1681526020019081526020016000205490508181101561138b576040517f08c379a000000000000000000000000000000000000000000000000000000000815260040161138290612241565b60405180910390fd5b8181036000808573ffffffffffffffffffffffffffffffffffffffff1673ffffffffffffffffffffffffffffffffffffffff1681526020019081526020016000208190555081600260008282546113e29190612261565b92505081905550600073ffffffffffffffffffffffffffffffffffffffff168373ffffffffffffffffffffffffffffffffffffffff167fddf252ad1be2c89b69c2b068fc378daa952ba7f163c4a11628f55a4df523b3ef846040516114479190611998565b60405180910390a361145b83600084611465565b505050565b505050565b505050565b61147482826107a4565b611503576114998173ffffffffffffffffffffffffffffffffffffffff166014611507565b6114a78360001c6020611507565b6040516020016114b8929190612369565b6040516020818303038152906040526040517f08c379a00000000000000000000000000000000000000000000000000000000081526004016114fa9190611893565b60405180910390fd5b5050565b60606000600283600261151a91906123a3565b6115249190611cc5565b67ffffffffffffffff81111561153d5761153c6123e5565b5b6040519080825280601f01601f19166020018201604052801561156f5781602001600182028036833780820191505090505b5090507f3000000000000000000000000000000000000000000000000000000000000000816000815181106115a7576115a6612414565b5b60200101907effffffffffffffffffffffffffffffffffffffffffffffffffffffffffffff1916908160001a9053507f78000000000000000000000000000000000000000000000000000000000000008160018151811061160b5761160a612414565b5b60200101907effffffffffffffffffffffffffffffffffffffffffffffffffffffffffffff1916908160001a9053506000600184600261164b91906123a3565b6116559190611cc5565b90505b60018111156116f5577f3031323334353637383961626364656600000000000000000000000000000000600f86166010811061169757611696612414565b5b1a60f81b8282815181106116ae576116ad612414565b5b60200101907effffffffffffffffffffffffffffffffffffffffffffffffffffffffffffff1916908160001a905350600485901c9450806116ee90612443565b9050611658565b5060008414611739576040517f08c379a0000000000000000000000000000000000000000000000000000000008152600401611730906124b8565b60405180910390fd5b8091505092915050565b600080fd5b60007fffffffff0000000000000000000000000000000000000000000000000000000082169050919050565b61177d81611748565b811461178857600080fd5b50565b60008135905061179a81611774565b92915050565b6000602082840312156117b6576117b5611743565b5b60006117c48482850161178b565b91505092915050565b60008115159050919050565b6117e2816117cd565b82525050565b60006020820190506117fd60008301846117d9565b92915050565b600081519050919050565b600082825260208201905092915050565b60005b8381101561183d578082015181840152602081019050611822565b60008484015250505050565b6000601f19601f8301169050919050565b600061186582611803565b61186f818561180e565b935061187f81856020860161181f565b61188881611849565b840191505092915050565b600060208201905081810360008301526118ad818461185a565b905092915050565b600073ffffffffffffffffffffffffffffffffffffffff82169050919050565b60006118e0826118b5565b9050919050565b6118f0816118d5565b81146118fb57600080fd5b50565b60008135905061190d816118e7565b92915050565b6000819050919050565b61192681611913565b811461193157600080fd5b50565b6000813590506119438161191d565b92915050565b600080604083850312156119605761195f611743565b5b600061196e858286016118fe565b925050602061197f85828601611934565b9150509250929050565b61199281611913565b82525050565b60006020820190506119ad6000830184611989565b92915050565b6000806000606084860312156119cc576119cb611743565b5b60006119da868287016118fe565b93505060206119eb868287016118fe565b92505060406119fc86828701611934565b9150509250925092565b6000819050919050565b611a1981611a06565b8114611a2457600080fd5b50565b600081359050611a3681611a10565b92915050565b600060208284031215611a5257611a51611743565b5b6000611a6084828501611a27565b91505092915050565b611a7281611a06565b82525050565b6000602082019050611a8d6000830184611a69565b92915050565b60008060408385031215611aaa57611aa9611743565b5b6000611ab885828601611a27565b9250506020611ac9858286016118fe565b9150509250929050565b600060ff82169050919050565b611ae981611ad3565b82525050565b6000602082019050611b046000830184611ae0565b92915050565b600060208284031215611b2057611b1f611743565b5b6000611b2e84828501611934565b91505092915050565b600060208284031215611b4d57611b4c611743565b5b6000611b5b848285016118fe565b91505092915050565b60008060408385031215611b7b57611b7a611743565b5b6000611b89858286016118fe565b9250506020611b9a858286016118fe565b9150509250929050565b7f4e487b7100000000000000000000000000000000000000000000000000000000600052602260045260246000fd5b60006002820490506001821680611beb57607f821691505b602082108103611bfe57611bfd611ba4565b5b50919050565b7f416363657373436f6e74726f6c3a2063616e206f6e6c792072656e6f756e636560008201527f20726f6c657320666f722073656c660000000000000000000000000000000000602082015250565b6000611c60602f8361180e565b9150611c6b82611c04565b604082019050919050565b60006020820190508181036000830152611c8f81611c53565b9050919050565b7f4e487b7100000000000000000000000000000000000000000000000000000000600052601160045260246000fd5b6000611cd082611913565b9150611cdb83611913565b9250828201905080821115611cf357611cf2611c96565b5b92915050565b7f45524332303a2064656372656173656420616c6c6f77616e63652062656c6f7760008201527f207a65726f000000000000000000000000000000000000000000000000000000602082015250565b6000611d5560258361180e565b9150611d6082611cf9565b604082019050919050565b60006020820190508181036000830152611d8481611d48565b9050919050565b7f45524332303a20617070726f76652066726f6d20746865207a65726f2061646460008201527f7265737300000000000000000000000000000000000000000000000000000000602082015250565b6000611de760248361180e565b9150611df282611d8b565b604082019050919050565b60006020820190508181036000830152611e1681611dda565b9050919050565b7f45524332303a20617070726f766520746f20746865207a65726f20616464726560008201527f7373000000000000000000000000000000000000000000000000000000000000602082015250565b6000611e7960228361180e565b9150611e8482611e1d565b604082019050919050565b60006020820190508181036000830152611ea881611e6c565b9050919050565b7f45524332303a20696e73756666696369656e7420616c6c6f77616e6365000000600082015250565b6000611ee5601d8361180e565b9150611ef082611eaf565b602082019050919050565b60006020820190508181036000830152611f1481611ed8565b9050919050565b7f45524332303a207472616e736665722066726f6d20746865207a65726f20616460008201527f6472657373000000000000000000000000000000000000000000000000000000602082015250565b6000611f7760258361180e565b9150611f8282611f1b565b604082019050919050565b60006020820190508181036000830152611fa681611f6a565b9050919050565b7f45524332303a207472616e7366657220746f20746865207a65726f206164647260008201527f6573730000000000000000000000000000000000000000000000000000000000602082015250565b600061200960238361180e565b915061201482611fad565b604082019050919050565b6000602082019050818103600083015261203881611ffc565b9050919050565b7f45524332303a207472616e7366657220616d6f756e742065786365656473206260008201527f616c616e63650000000000000000000000000000000000000000000000000000602082015250565b600061209b60268361180e565b91506120a68261203f565b604082019050919050565b600060208201905081810360008301526120ca8161208e565b9050919050565b7f45524332303a206d696e7420746f20746865207a65726f206164647265737300600082015250565b6000612107601f8361180e565b9150612112826120d1565b602082019050919050565b60006020820190508181036000830152612136816120fa565b9050919050565b7f45524332303a206275726e2066726f6d20746865207a65726f2061646472657360008201527f7300000000000000000000000000000000000000000000000000000000000000602082015250565b600061219960218361180e565b91506121a48261213d565b604082019050919050565b600060208201905081810360008301526121c88161218c565b9050919050565b7f45524332303a206275726e20616d6f756e7420657863656564732062616c616e60008201527f6365000000000000000000000000000000000000000000000000000000000000602082015250565b600061222b60228361180e565b9150612236826121cf565b604082019050919050565b6000602082019050818103600083015261225a8161221e565b9050919050565b600061226c82611913565b915061227783611913565b925082820390508181111561228f5761228e611c96565b5b92915050565b600081905092915050565b7f416363657373436f6e74726f6c3a206163636f756e7420000000000000000000600082015250565b60006122d6601783612295565b91506122e1826122a0565b601782019050919050565b60006122f782611803565b6123018185612295565b935061231181856020860161181f565b80840191505092915050565b7f206973206d697373696e6720726f6c6520000000000000000000000000000000600082015250565b6000612353601183612295565b915061235e8261231d565b601182019050919050565b6000612374826122c9565b915061238082856122ec565b915061238b82612346565b915061239782846122ec565b91508190509392505050565b60006123ae82611913565b91506123b983611913565b92508282026123c781611913565b915082820484148315176123de576123dd611c96565b5b5092915050565b7f4e487b7100000000000000000000000000000000000000000000000000000000600052604160045260246000fd5b7f4e487b7100000000000000000000000000000000000000000000000000000000600052603260045260246000fd5b600061244e82611913565b91506000820361246157612460611c96565b5b600182039050919050565b7f537472696e67733a20686578206c656e67746820696e73756666696369656e74600082015250565b60006124a260208361180e565b91506124ad8261246c565b602082019050919050565b600060208201905081810360008301526124d181612495565b905091905056fea264697066735822122065cd664e7ceb950371baec815d99ec3d6be5a61610e5d07eac203335a3c748a964736f6c63430008110033",
  "linkReferences": {},
  "deployedLinkReferences": {}
}